:020000040000FA
:0400000006EF00F017
:100008000AED00F010EE80F083EF08F00600E9CF6B
:1000180004F0EACF05F0E1CF06F0E2CF07F0D9CF40
:1000280008F0DACF09F0F3CF0AF0F4CF0BF028C0CC
:100038000CF029C00DF030C00EF031C00FF032C006
:1000480010F033C011F012EE6EF0F2A22EEF00F0B5
:1000580030EF00F0E5EF01F0A80EE66E100EE66E48
:100068000A0EE66E000EE66E040EE66E000EE66EF2
:1000780021EC07F0FCC51CF0FDC51DF0000E136E49
:10008800000E126E530EE66E000EE66E1CC0E6FF02
:100098001DC0E6FF99EC07F05F0E2824D96E040E08
:1000A8002920DA6EDE04D8A45CEF00F05EEF00F0E1
:1000B80002EF01F0530EE66E000EE66E1CC0E6FF7E
:1000C8001DC0E6FF99EC07F05F0E2824D96E040ED8
:1000D8002920DA6E000EDF6EE050016E026A036AB4
:1000E800530EE66E000EE66E1CC0E6FF1DC0E6FF6E
:1000F80099EC07F0A30E2824D96E040E2920DA6E95
:1001080001C0DEFF02C0DEFF03C0DEFFD850016E73
:10011800026A036A530EE66E000EE66E1CC0E6FF26
:100128001DC0E6FF99EC07F0A60E2824D96E040E30
:100138002920DA6E01C0DEFF02C0DEFF03C0DEFF49
:10014800016E026A036A530EE66E000EE66E1CC06C
:10015800E6FF1DC0E6FF99EC07F0A90E2824D96E2A
:10016800040E2920DA6E01C0DEFF02C0DEFF03C0E4
:10017800DEFF530EE66E000EE66E1CC0E6FF1DC0E5
:10018800E6FF99EC07F0620E2824016E040E292080
:10019800026E030EE66E000EE66E12C0E6FF13C096
:1001A800E6FF99EC07F028500124D96E2950022067
:1001B800DA6EFDCFDEFFFECFDEFFFFCFDEFF124A95
:1001C800132A0600FC50D8A4ECEF00F0EEEF00F084
:1001D800BDEF00F0530EE66E000EE66E1CC0E6FFA3
:1001E8001DC0E6FF99EC07F0A10E2824D96E040E75
:1001F8002920DA6E12C0DEFF13C0DDFFDCEC08F048
:10020800FCC520F0FDC521F0530EE66E000EE66E2B
:1002180020C0E6FF21C0E6FF99EC07F05F0E282416
:10022800D96E040E2920DA6E010EDF6E530EE66ECB
:10023800000EE66E20C0E6FF21C0E6FF99EC07F04D
:10024800A30E2824D96E040E2920DA6EDF50E06E42
:10025800530EE66E000EE66E20C0E6FF21C0E6FFF4
:1002680099EC07F0A60E2824D96E040E2920DA6E20
:10027800DF50D86E530EE66E000EE66E20C0E6FF25
:1002880021C0E6FF99EC07F0A90E2824D96E040EC8
:100298002920DA6EDF50016E0150000EFC6E530EFD
:1002A800E66E000EE66E20C0E6FF21C0E6FF99EC80
:1002B80007F0A10E2824D96E040E2920DA6EDE502C
:1002C800DE10D8B46AEF01F06CEF01F0B5EF01F081
:1002D800530EE66E000EE66E20C0E6FF21C0E6FF74
:1002E80099EC07F0A10E2824D96E040E2920DA6EA5
:1002F800DECF14F0DDCF15F005001406D8A01506E2
:10030800530EE66E000EE66E20C0E6FF21C0E6FF43
:1003180099EC07F0620E2824016E040E2920026E63
:10032800030EE66E000EE66E14C0E6FF15C0E6FF8B
:1003380099EC07F028500124D96E29500220DA6E72
:10034800DECFFDFFDECFFEFFDDCFFFFF145015101F
:10035800D8A4B1EF01F0B3EF01F080EF01F0E3EFC3
:1003680001F00500530EE66E000EE66E20C0E6FFB3
:1003780021C0E6FF99EC07F0600E2824D96E040E20
:100388002920DA6EDECF01F0DDCF02F001C0FDFFDB
:1003980002C0FEFFFF6A530EE66E000EE66E20C036
:1003A800E6FF21C0E6FF99EC07F0A10E2824D96EDC
:1003B800040E2920DA6E010EDE6E000EDD6EF28E5E
:1003C800F292F2A4EAEF01F0ECEF01F019EF04F079
:1003D80025EEFEF0DE06000EDD5A25EEFEF0DE50BC
:1003E800DE10D8A4FAEF01F0FCEF01F0A8EF03F05B
:1003F800FCC51EF0FDC51FF0000E176E000E166E30
:10040800530EE66E000EE66E1EC0E6FF1FC0E6FF46
:1004180099EC07F05F0E2824D96E040E2920DA6EB5
:10042800DE04D8A41AEF02F01CEF02F0C0EF02F0CD
:10043800530EE66E000EE66E1EC0E6FF1FC0E6FF16
:1004480099EC07F05F0E2824D96E040E2920DA6E85
:10045800000EDF6EE050016E026A036A530EE66E0C
:10046800000EE66E1EC0E6FF1FC0E6FF99EC07F01F
:10047800A30E2824D96E040E2920DA6E01C0DEFFEF
:1004880002C0DEFF03C0DEFFD850016E026A036AB5
:10049800530EE66E000EE66E1EC0E6FF1FC0E6FFB6
:1004A80099EC07F0A60E2824D96E040E2920DA6EDE
:1004B80001C0DEFF02C0DEFF03C0DEFF016E026A7C
:1004C800036A530EE66E000EE66E1EC0E6FF1FC0FE
:1004D800E6FF99EC07F0A90E2824D96E040E29200E
:1004E800DA6E01C0DEFF02C0DEFF03C0DEFF530E7E
:1004F800E66E000EE66E1EC0E6FF1FC0E6FF99EC32
:1005080007F0620E2824016E040E2920026E030EE5
:10051800E66E000EE66E16C0E6FF17C0E6FF99EC21
:1005280007F028500124D96E29500220DA6EFDCF39
:10053800DEFFFECFDEFFFFCFDEFF164A172A0600DA
:10054800FC50D8A4AAEF02F0ACEF02F07BEF02F067
:10055800530EE66E000EE66E1EC0E6FF1FC0E6FFF5
:1005680099EC07F0A10E2824D96E040E2920DA6E22
:1005780016C0DEFF17C0DDFFDCEC08F0FCC522F07A
:10058800FDC523F0530EE66E000EE66E22C0E6FFB0
:1005980023C0E6FF99EC07F05F0E2824D96E040EFD
:1005A8002920DA6E010EDF6E530EE66E000EE66E3F
:1005B80022C0E6FF23C0E6FF99EC07F0A30E28242B
:1005C800D96E040E2920DA6EDF50E06E530EE66E07
:1005D800000EE66E22C0E6FF23C0E6FF99EC07F0A6
:1005E800A60E2824D96E040E2920DA6EDF50D86EA4
:1005F800530EE66E000EE66E22C0E6FF23C0E6FF4D
:1006080099EC07F0A90E2824D96E040E2920DA6E79
:10061800DF50016E0150000EFC6E530EE66E000EA8
:10062800E66E22C0E6FF23C0E6FF99EC07F0A10EB4
:100638002824D96E040E2920DA6EDE50DE10D8B4D4
:1006480028EF03F02AEF03F073EF03F0530EE66E82
:10065800000EE66E22C0E6FF23C0E6FF99EC07F025
:10066800A10E2824D96E040E2920DA6EDECF18F0E8
:10067800DDCF19F005001806D8A01906530EE66E4E
:10068800000EE66E22C0E6FF23C0E6FF99EC07F0F5
:10069800620E2824016E040E2920026E030EE66EF7
:1006A800000EE66E18C0E6FF19C0E6FF99EC07F0E9
:1006B80028500124D96E29500220DA6EDECFFDFFC2
:1006C800DECFFEFFDDCFFFFF18501910D8A46FEF63
:1006D80003F071EF03F03EEF03F0A1EF03F0050024
:1006E800530EE66E000EE66E22C0E6FF23C0E6FF5C
:1006F80099EC07F0600E2824D96E040E2920DA6ED2
:10070800DECF01F0DDCF02F001C0FDFF02C0FEFF29
:10071800FF6A530EE66E000EE66E22C0E6FF23C0A7
:10072800E6FF99EC07F0A10E2824D96E040E2920C3
:10073800DA6E010EDE6E000EDD6EF28E080EE8CF68
:10074800FEF5000EE8CFFFF5000E1B6E000E1A6EC8
:1007580007EF04F0530EE66E000EE66E1AC0E6FFD1
:100768001BC0E6FF99EC07F0AC0E2824D96E040EE6
:100778002920DA6EDE50DE10D8B4C5EF03F0C7EFDB
:1007880003F005EF04F0530EE66E000EE66E1AC095
:10079800E6FF1BC0E6FF99EC07F0AC0E2824D96EE3
:1007A800040E2920DA6EDE06000EDD5A530EE66EC0
:1007B800000EE66E1AC0E6FF1BC0E6FF99EC07F0D4
:1007C800AC0E2824D96E040E2920DA6EDE50DE1015
:1007D800D8A4F1EF03F0F3EF03F005EF04F0530EA4
:1007E800E66E000EE66E1AC0E6FF1BC0E6FF99EC47
:1007F80007F05F0E2824D96E040E2920DA6E000E49
:10080800DF6E1A4A1B2A25EEFAF0DE501A5CDE501B
:100818001B58D8A012EF04F014EF04F0AEEF03F069
:10082800000ED76E400ED66EF29411C033F010C091
:1008380032F00FC031F00EC030F00DC029F00CC0FE
:1008480028F00BC0F4FF0AC0F3FF09C0DAFF08C0A4
:10085800D9FF07C0E2FF06C0E1FF05C0EAFF04C0F8
:10086800E9FF1100080EE126000EE222F29EE15097
:10087800F60FD96EE250DA6EFF0EDA2205EEFCF0C2
:10088800EECF32F0EDCF33F0530E3202F3CF30F02B
:10089800F4CF31F03302F3503126AC0E3024E96E38
:1008A800040E3120EA6EDECFEEFFDDCFEDFFFC0E49
:1008B800FCC5E3FFFD0EFDC5E3FFFE0EE36AFF0E78
:1008C800E36AFC0EE3CF32F0FD0EE3CF33F0530EB4
:1008D8003202F3CF30F0F4CF31F03302F350312647
:1008E8005F0E3024D96E040E3120DA6EDE04D8A4EF
:1008F80080EF04F082EF04F05DEF05F0FC0EE3CF2B
:1009080032F0FD0EE3CF33F0530E3202F3CF30F066
:10091800F4CF31F03302F35031265F0E3024D96E14
:10092800040E3120DA6E030EDF6EE050316E326A4B
:10093800336AFC0EE3CF2EF0FD0EE3CF2FF0530EFB
:100948002E02F3CF2CF0F4CF2DF02F02F3502D26EA
:10095800A30E2C24D96E040E2D20DA6E31C0DEFFD2
:1009680032C0DEFF33C0DEFFD850316E326A336AE0
:10097800FC0EE3CF2EF0FD0EE3CF2FF0530E2E0228
:10098800F3CF2CF0F4CF2DF02F02F3502D26A60E26
:100998002C24D96E040E2D20DA6E31C0DEFF32C051
:1009A800DEFF33C0DEFF316E326A336AFC0EE3CFFE
:1009B8002EF0FD0EE3CF2FF0530E2E02F3CF2CF0C6
:1009C800F4CF2DF02F02F3502D26A90E2C24D96E2A
:1009D800040E2D20DA6E31C0DEFF32C0DEFF33C0D8
:1009E800DEFFFE0EE3CF32F0FF0EE3CF33F0030E4F
:1009F8003202F3CF30F0F4CF31F03302F350312626
:100A0800FC0EE3CF32F0FD0EE3CF33F0530E32028B
:100A1800F3CF2EF0F4CF2FF03302F3502F26620ECF
:100A28002E24326E040E2F20336E30503224D96EAD
:100A380031503320DA6EFDCFDEFFFECFDEFFFFCF71
:100A4800DEFFFE0EE350010F286EFE0E28C0E3FF06
:100A5800286AFF0EE3502820286EFF0E28C0E3FF07
:100A68000600FC50D8A43BEF05F03DEF05F0F5EF8C
:100A780004F0E150FE0FD96EE250DA6EFF0EDA2272
:100A8800FC0EE3CF32F0FD0EE3CF33F0530E32020B
:100A9800F3CF30F0F4CF31F03302F3503126A10E0A
:100AA8003024E96E040E3120EA6EDECFEEFFDDCF92
:100AB800EDFFDCEC08F0FA0EFCC5E3FFFB0EFDC50C
:100AC800E3FFFA0EE3CF32F0FB0EE3CF33F0530E21
:100AD8003202F3CF30F0F4CF31F03302F350312645
:100AE8005F0E3024D96E040E3120DA6E010EDF6EEF
:100AF800FA0EE3CF32F0FB0EE3CF33F0530E32029F
:100B0800F3CF30F0F4CF31F03302F3503126A30E97
:100B18003024D96E040E3120DA6EDF50E06EFA0E02
:100B2800E3CF32F0FB0EE3CF33F0530E3202F3CFB4
:100B380030F0F4CF31F03302F3503126A60E3024D2
:100B4800D96E040E3120DA6EDF50D86EFA0EE3CF7C
:100B580032F0FB0EE3CF33F0530E3202F3CF30F016
:100B6800F4CF31F03302F3503126A90E3024D96E78
:100B7800040E3120DA6EDF50336E3350FC6AFA0E01
:100B8800E3CF32F0FB0EE3CF33F0530E3202F3CF54
:100B980030F0F4CF31F03302F3503126A10E302477
:100BA800D96E040E3120DA6EDE50DE10D8B4DFEFD5
:100BB80005F0E1EF05F050EF06F0FA0EE3CF32F062
:100BC800FB0EE3CF33F0530E3202F3CF30F0F4CF05
:100BD80031F03302F3503126A10E3024D96E040EC1
:100BE8003120DA6EDECF32F0DDCF33F0F80E32C0CE
:100BF800E3FFF90E33C0E3FF0500F80EE3CF28F05A
:100C0800010E285EF80E28C0E3FFF90EE3CF28F0A6
:100C1800000E285AF90E28C0E3FFF80EE3CF32F091
:100C2800F90EE3CF33F0030E3202F3CF30F0F4CFF6
:100C380031F03302F3503126FA0EE3CF32F0FB0ED7
:100C4800E3CF33F0530E3202F3CF2EF0F4CF2FF070
:100C58003302F3502F26620E2E24326E040E2F20FC
:100C6800336E30503224D96E31503320DA6EDECFF5
:100C7800FDFFDECFFEFFDDCFFFFFF80EE3CF28F04C
:100C8800F90EE3502810D8A44CEF06F04EEF06F00A
:100C980000EF06F088EF06F00500FA0EE3CF32F019
:100CA800FB0EE3CF33F0530E3202F3CF30F0F4CF24
:100CB80031F03302F3503126600E3024D96E040E21
:100CC8003120DA6EDECF32F0DDCF33F032C0FDFFF7
:100CD80033C0FEFFFF6AFA0EE3CF32F0FB0EE3CF1C
:100CE80033F0530E3202F3CF30F0F4CF31F0330249
:100CF800F3503126A10E3024D96E040E3120DA6E5D
:100D0800010EDE6E000EDD6EF28EF28EF60EE1261C
:100D1800FF0EE2221200060EE126000EE222FE0E6F
:100D2800E36AFF0EE36AFC0EFCC5E3FFFD0EFDC59A
:100D3800E3FFFA0EE36AFB0EE36A03EF07F0FA0E2D
:100D4800E3CF32F0FB0EE3CF33F0530E3202F3CF92
:100D580030F0F4CF31F03302F35031265D0E3024F9
:100D6800D96E040E3120DA6EFE0EE3CF28F0DE5085
:100D7800285CFF0EE3CF28F0DE502858D8B0C7EF24
:100D880006F0C9EF06F0F4EF06F0FA0EE3CF32F002
:100D9800FB0EE3CF33F0530E3202F3CF30F0F4CF33
:100DA80031F03302F35031265D0E3024D96E040E33
:100DB8003120DA6EDECF32F0DDCF33F0FE0E32C0F6
:100DC800E3FFFF0E33C0E3FFFA0EE3CF28F0FC0E7B
:100DD80028C0E3FFFB0EE3CF28F0FD0E28C0E3FF99
:100DE800FA0EE350010F286EFA0E28C0E3FF286AB6
:100DF800FB0EE3502820286EFB0E28C0E3FF25EEEB
:100E0800FAF0FA0EE3CF28F0DE50285CFB0EE3CFB1
:100E180028F0DE502858D8A014EF07F016EF07F096
:100E2800A3EF06F0FC0EE3CF28F0FD0EE3CF29F088
:100E3800FA0EE126FF0EE2221200530EE126000E02
:100E4800E222AB0EE3CF28F0AD0E28C0E3FFAC0ED4
:100E5800E3CF28F0AE0E28C0E3FFE150A90FD96E0A
:100E6800E250DA6EFF0EDA22AF0EE124E96EFF0ED1
:100E7800E220EA6EDECFEEFFDDCFEDFFB10EE1241A
:100E8800D96EFF0EE220DA6E000EDF6EE150A70F7A
:100E9800D96EE250DA6EFF0EDA22B20EE124E96E64
:100EA800FF0EE220EA6EDECFEEFFDDCFEDFFF30EA0
:100EB800E124D96EFF0EE220DA6E000EDE6E000E1F
:100EC800DD6EFE0EE124D96EFF0EE220DA6E000E12
:100ED800DE6E000EDD6EAD0EE124D96EFF0EE2204F
:100EE800DA6E05EEFAF0EECF32F0EDCF33F0530EB6
:100EF8003202F3CF30F0F4CF31F03302F350312621
:100F08005B0E3024E96E040E3120EA6E520EDBCF00
:100F1800EBFFE806FCE225EEFAF0DE2A000EDD2201
:100F2800A70EE126FF0EE2221200E652E652FA0E62
:100F3800E3CF33F0FC0EE3503302FE0EF3CFE3FFB2
:100F4800FF0EF4CFE3FFFB0EE124D96EFF0EE22083
:100F5800DA6EDF50336EFC0EE3503302F3CFF4FF4A
:100F6800F36AE150FE0FD96EE250DA6EFF0EDA2214
:100F7800F350DE26F450DD22FA0EE3CF33F0FD0EF7
:100F8800E124D96EFF0EE220DA6EDF503302F3CF90
:100F9800F4FFF36AE150FE0FD96EE250DA6EFF0EED
:100FA800DA22F350DE26F450DD22FE0EE3CF28F0DD
:100FB800FF0EE3CF29F0FA0EE126FF0EE22212001F
:100FC80096EC08F0BCEC08F0CEEC08F0520EE66E99
:100FD800110EE66E050EE66E000EE66E010EE66E6A
:100FE800000EE66E21EC07F0DE0EE66E100EE66EE1
:100FF800050EE66E000EE66E020EE66E000EE66E5A
:1010080021EC07F0720EE66E100EE66E050EE66E27
:10101800000EE66E030EE66E000EE66E21EC07F09B
:10102800EAEC08F016EF08F006EF00F0F29E24C094
:10103800D9FF25C0DAFF26C0DEFF27C0DDFF20EE7E
:101048000CF02450D9262550DA22000EDE6E000E50
:10105800DD6E20EE0EF02450D9262550DA22000E3F
:10106800DE6E000EDD6EF28E120083B43EEF08F0E5
:1010780041EF08F0010E42EF08F0000EFF0A336E50
:10108800334633468C503318FB0B33188C6E320EB4
:10109800E66E000EE66E36EC04F039EF08F012004A
:1010A80083B459EF08F05CEF08F0010E5DEF08F02B
:1010B800000EFF0A336E334633468C503318FB0B51
:1010C80033188C6E320EE66E000EE66E36EC04F0C7
:1010D80054EF08F0120083B274EF08F077EF08F0CD
:1010E800010E78EF08F0000EFF0A336E33468C507D
:1010F8003318FD0B33188C6E6FEF08F0120004EEF6
:101108005BF021EEA5F0EE6ADD50D950FCE1DA5033
:10111800FAE100EE48F0100EEE6AE806FDE1000183
:10112800E4EF07F0000EE8CFFAF5000EE8CFFBF584
:10113800000EE8CFFCF5000EE8CFFDF5080EE8CF6D
:10114800FEF5000EE8CFFFF5120083B0AEEF08F011
:10115800B1EF08F0010EB2EF08F0000EFF0A336E8F
:101168008C503318FE0B33188C6EA9EF08F0120060
:10117800F288F292F19EF19CF28AF294D59AD58C7B
:10118800D596D550F80B0509D56E000ED76E400ED2
:10119800D66E1200959095929594480E246E000E86
:1011A800256E000E276E000E266E1AEC08F012004F
:1011B800E3EC08F028C0FCF529C0FDF512008FEC1F
:1011C80006F028C0FCF529C0FDF51200F28ED58E78
:0211D800120003
:020000040020DA
:08000000FFFFFFFFFFFFFFFF00
:020000040030CA
:0E000000FF071F1FFF8185FF0FC00FE00F409D
:00000001FF
